:020000040800F2
:100000000020002085010008890100088B010008FC
:1000100000000000000000000000000000000000E0
:10002000000000000000000000000000A501000822
:100030000000000000000000A7010008C104000843
:10004000B501000800000000B5010008B501000876
:10005000B5010008B5010008B5010008B5010008A8
:1000600000000000B5010008B5010008B501000856
:10007000B5010008B5010008B50100080000000046
:10008000B50100080000000000000000B5010008F4
:10009000B5010008B5010008B5010008B501000868
:1000A000B5010008B5010008B5010008B501000858
:1000B000B501000800000000000000000000000082
:1000C0005FF808F173B500F0E3F8002322482349F4
:1000D000234C1A188A4203D2E55804331560F8E716
:1000E0000021204B204A934201D202C3FBE700F0DB
:1000F000D3F801A9684600F0C3F81C4B00251E0088
:100100001B4CE41AA410AC4204DDAB00F358984732
:100110000135F8E7174B00251E00174CE41AA41010
:10012000AC4204DDAB00F35898470135F8E701997C
:10013000009800F0C9F9114B05001E00104CE41A9C
:10014000A410002C04DD013CA300F3589847F8E705
:10015000280000F091F8C046000000201C0000209C
:10016000200600081C00002024000020E0010008F8
:10017000E0010008E0010008E0010008E0010008DB
:10018000E001000809480047FEE7042071460842E4
:1001900002D0EFF3098001E0EFF308807146044AD2
:1001A0001047FEE7FEE7FEE770470000C5000008C5
:0601B000A3010008FEE7B8
:1001B80020060008000000201C000020200600087F
:1001C80000000000000000001C00002024000020A7
:0801D80000000000000000001F
:1001E000F7B50B680193002301249C40019A22403B
:1001F00094422CD10A79551E012D15D85E00B446C3
:1002000003266746BE408568B54385604E7985689C
:10021000BE402E4386608588A54385808C7985887D
:100220009C402C43A4B2848003245D00AC40E44392
:10023000AA40066826400660066832430260C2682B
:100240001440C460CA79C468AA402243C260013322
:10025000102BC9D1F7BD816170470185704700003F
:10026000044B5A69002902D01043586101E08243CF
:100270005A6170470010024010B500F011F80000FC
:1002800001230360014B0B607047C0460000002053
:1002900010B500F013F810BD10B500F08DF810BDCA
:1002A000BFF34F8F034A044BDA60BFF34F8FC04652
:1002B000FDE7C0460400FA0500ED00E00121364BE1
:1002C00082B01A680A431A605868344A02405A6079
:1002D0001868334A02401A601868324A02401A60AD
:1002E0005868314A02400F205A60DA6A8243DA6263
:1002F000186B2E4A02401A635A6B80208A435A6355
:10030000002280219A60009201921A6849020A43F1
:10031000A0211A608002C9011A6802400192009A65
:1003200001320092019A002A02D1009A8A42F3D146
:100330008022196892020A4000D001220192019A9B
:10034000012A27D111211A4A11605A685A605A6845
:100350005A605968174A0A4088215A605A68490306
:100360000A4380215A601A6849040A4380211A60AE
:1003700089041868084A0842FBD003205168814369
:10038000516051680138014351600C215A680A409C
:10039000082AFBD102B07047001002400CB8FF08D9
:1003A000FFFFF6FEFFFFFBFFFFFFC0FFACFEFFFFFE
:1003B00000200240FF7FC0FF0C2370B5134D144E88
:1003C0006A681340042B01D0082B02D0114B336014
:1003D00013E00F21C0236C686A68A40C0C405B0218
:1003E00002341A4201D10C4805E0EB6A0948194071
:1003F000013100F089F8444334606B68074A1B06FA
:100400001B0FD35C3268DA40326070BD00100240CE
:100410001800002000127A0000093D0008000020AA
:1004200037B5802001218002FFF71AFF6A460123B9
:100430001371002390246946102593710322E4056B
:1004400020004A71CB710095FFF7CAFE29002000F9
:10045000FFF703FF37BD0000FA210C4B10B51868F9
:10046000890000F051F80A4B013898420DD8094A2A
:1004700009495060C0200B6A00061B021B0A034397
:100480000B62002393600733136010BD1800002037
:10049000FFFFFF0010E000E000ED00E0024B1860FD
:1004A0001A68002AFCD1704720000020034B1A680C
:1004B000002A02D01A68013A1A6070472000002012
:1004C00010B5FFF7F3FF10BD10B5FFF7C5FF00240F
:1004D000FFF7A6FF90201021C005FFF7BCFE002CFF
:1004E00001D0084801E0FA208000FFF7D7FF9020F4
:1004F0001021C005FFF7B1FEFA20FFF7CFFF01344E
:10050000E8E7C046EE020000002243088B4274D3A5
:1005100003098B425FD3030A8B4244D3030B8B4204
:1005200028D3030C8B420DD3FF22090212BA030C0D
:100530008B4202D31212090265D0030B8B4219D3EE
:1005400000E0090AC30B8B4201D3CB03C01A52410E
:10055000830B8B4201D38B03C01A5241430B8B4256
:1005600001D34B03C01A5241030B8B4201D30B033F
:10057000C01A5241C30A8B4201D3CB02C01A524166
:10058000830A8B4201D38B02C01A5241430A8B4229
:1005900001D34B02C01A5241030A8B4201D30B0212
:1005A000C01A5241CDD2C3098B4201D3CB01C01A2C
:1005B000524183098B4201D38B01C01A5241430936
:1005C0008B4201D34B01C01A524103098B4201D324
:1005D0000B01C01A5241C3088B4201D3CB00C01A91
:1005E000524183088B4201D38B00C01A5241430809
:1005F0008B4201D34B00C01A5241411A00D201462E
:10060000524110467047FFE701B5002000F006F8A0
:1006100002BDC0460029F7D076E770477047C04654
:100620001C0000200000000000000000000000008E
:0C0630000102030406070809006CDC024C
:04000005080000C52A
:00000001FF
